:1000000001308A0070290000FF00030E8301A10067
:100010000A08A0008A010408A2007708A300780853
:10002000A4007908A5007A08A600831383120B1E8A
:100030001B288B182C28220884002308F70024088A
:10004000F8002508F9002608FA0020088A00210E89
:100050008300FF0E7F0E09008A110A122F28391023
:100060008B108A110A121B28831605148312051C93
:1000700039148A110A12A9298318412847308400AB
:100080008313420846068039CC00C21F5228BF099C
:10009000C009C109C209BF0A0319C00A0319C10A6C
:1000A0000319C20AC61F5F28C309C409C509C609C6
:1000B000C30A0319C40A0319C50A0319C60AF701BA
:1000C000F801F901FA01C701C801C901CA014608CE
:1000D00045044404430403199D282030CB00031039
:1000E000BF0DC00DC10DC20DC70DC80DC90DCA0D84
:1000F00046084A02031D862845084902031D862832
:1001000044084802031D862843084702031C972819
:100110004308C7024408031C440FC8024508031CD7
:10012000450FC9024608031C460FCA020314F70D07
:10013000F80DF90DFA0DCB0B6F28CC1FAA28F70983
:10014000F809F909FA09F70A0319F80A0319F90A6B
:100150000319FA0A47088000840A48088000840AC4
:1001600049088000840A4A08800008003B30840067
:10017000831300080319C9280630F800F701F70BAC
:10018000BF28F80BBE287B30F700F70BC528800B83
:10019000BC28080083103808C2003708C1003608A0
:1001A000C0003508BF00C601C501C4010A30C30044
:1001B0003C202730770784008313781883170008C2
:1001C000BF008316880183123F08880083168611BA
:1001D000831286110230BB00B6208316861183126B
:1001E000861583143B30840083133808C200370817
:1001F000C1003608C0003508BF00C601C501C401F2
:100200000A30C3003C2027303B07840083133C188E
:1002100083170008C30083168801831243088800EF
:1002200083160612831206120230BB00B620831614
:1002300006128312061683103408C2003308C10068
:100240003208C0003108BF00C601C501C4010A3030
:10025000C3003C2027307707840083137818831766
:100260000008BF008316880183123F0888008316A8
:100270008610831286100230BB00B62083168610CB
:100280008312861483143B30840083133408C20025
:100290003308C1003208C0003108BF00C601C501E3
:1002A000C4010A30C3003C2027303B07840083137D
:1002B0003C1883170008C300831688018312430883
:1002C000880083160611831206110230BB00B62087
:1002D00083160611831206150230BB00B6200800F3
:1002E00003081F3983003910FF30BA0083161F142A
:1002F0009F141F159F1107309C008313C030831279
:10030000A700F930A800A430A900B030AA009930A5
:10031000AB009230AC008230AD00F830AE008030DF
:10032000AF009030B0000B16C0308B04FF30831646
:100330008500003087008312BA008316880083127C
:10034000B401B301B201B101B801B701B601B50101
:100350003428391CE329B41BD929B408031DBA2950
:10036000B308031DBA29B208031DBA293108633C3A
:100370000318D9290130B5070318B60A0319B70ABB
:100380000319B80AB401B301B201B101B81BD929EC
:10039000B808031DD529B708031DD529B608031DC4
:1003A000D5293508633C0318D929B801B701B6012E
:1003B000B501CA200130B1070318B20A0319B30A04
:0C03C0000319B40AE429CA20A82963002C
:02400E00723FFF
:00000001FF
;PIC16F877A
;CRC=45EA  CREATED="17-May-24 19:51"
